{
  "address": "0x1806051151964F801182dAC3994945E3cd5418c6",
  "abi": [
    {
      "inputs": [],
      "stateMutability": "nonpayable",
      "type": "constructor"
    },
    {
      "inputs": [
        {
          "internalType": "address",
          "name": "sender",
          "type": "address"
        },
        {
          "internalType": "uint256",
          "name": "balance",
          "type": "uint256"
        },
        {
          "internalType": "uint256",
          "name": "needed",
          "type": "uint256"
        },
        {
          "internalType": "uint256",
          "name": "tokenId",
          "type": "uint256"
        }
      ],
      "name": "ERC1155InsufficientBalance",
      "type": "error"
    },
    {
      "inputs": [
        {
          "internalType": "address",
          "name": "approver",
          "type": "address"
        }
      ],
      "name": "ERC1155InvalidApprover",
      "type": "error"
    },
    {
      "inputs": [
        {
          "internalType": "uint256",
          "name": "idsLength",
          "type": "uint256"
        },
        {
          "internalType": "uint256",
          "name": "valuesLength",
          "type": "uint256"
        }
      ],
      "name": "ERC1155InvalidArrayLength",
      "type": "error"
    },
    {
      "inputs": [
        {
          "internalType": "address",
          "name": "operator",
          "type": "address"
        }
      ],
      "name": "ERC1155InvalidOperator",
      "type": "error"
    },
    {
      "inputs": [
        {
          "internalType": "address",
          "name": "receiver",
          "type": "address"
        }
      ],
      "name": "ERC1155InvalidReceiver",
      "type": "error"
    },
    {
      "inputs": [
        {
          "internalType": "address",
          "name": "sender",
          "type": "address"
        }
      ],
      "name": "ERC1155InvalidSender",
      "type": "error"
    },
    {
      "inputs": [
        {
          "internalType": "address",
          "name": "operator",
          "type": "address"
        },
        {
          "internalType": "address",
          "name": "owner",
          "type": "address"
        }
      ],
      "name": "ERC1155MissingApprovalForAll",
      "type": "error"
    },
    {
      "inputs": [],
      "name": "EmptyStory",
      "type": "error"
    },
    {
      "inputs": [],
      "name": "InsufficientBalance",
      "type": "error"
    },
    {
      "inputs": [],
      "name": "InvalidMaxSupply",
      "type": "error"
    },
    {
      "inputs": [],
      "name": "MaxSupplyReached",
      "type": "error"
    },
    {
      "inputs": [],
      "name": "NotTokenHolder",
      "type": "error"
    },
    {
      "inputs": [
        {
          "internalType": "address",
          "name": "owner",
          "type": "address"
        }
      ],
      "name": "OwnableInvalidOwner",
      "type": "error"
    },
    {
      "inputs": [
        {
          "internalType": "address",
          "name": "account",
          "type": "address"
        }
      ],
      "name": "OwnableUnauthorizedAccount",
      "type": "error"
    },
    {
      "inputs": [],
      "name": "PropagationDisabled",
      "type": "error"
    },
    {
      "inputs": [],
      "name": "ReentrancyGuardReentrantCall",
      "type": "error"
    },
    {
      "inputs": [],
      "name": "SelfPropagation",
      "type": "error"
    },
    {
      "inputs": [],
      "name": "TransferDisabled",
      "type": "error"
    },
    {
      "anonymous": false,
      "inputs": [
        {
          "indexed": true,
          "internalType": "address",
          "name": "account",
          "type": "address"
        },
        {
          "indexed": true,
          "internalType": "address",
          "name": "operator",
          "type": "address"
        },
        {
          "indexed": false,
          "internalType": "bool",
          "name": "approved",
          "type": "bool"
        }
      ],
      "name": "ApprovalForAll",
      "type": "event"
    },
    {
      "anonymous": false,
      "inputs": [
        {
          "indexed": true,
          "internalType": "uint256",
          "name": "tokenId",
          "type": "uint256"
        },
        {
          "indexed": true,
          "internalType": "address",
          "name": "creator",
          "type": "address"
        },
        {
          "indexed": false,
          "internalType": "string",
          "name": "story",
          "type": "string"
        },
        {
          "indexed": false,
          "internalType": "uint256",
          "name": "maxSupply",
          "type": "uint256"
        },
        {
          "indexed": false,
          "internalType": "uint256",
          "name": "timestamp",
          "type": "uint256"
        }
      ],
      "name": "KudosCreated",
      "type": "event"
    },
    {
      "anonymous": false,
      "inputs": [
        {
          "indexed": true,
          "internalType": "uint256",
          "name": "tokenId",
          "type": "uint256"
        },
        {
          "indexed": true,
          "internalType": "address",
          "name": "from",
          "type": "address"
        },
        {
          "indexed": true,
          "internalType": "address",
          "name": "to",
          "type": "address"
        },
        {
          "indexed": false,
          "internalType": "uint256",
          "name": "generation",
          "type": "uint256"
        },
        {
          "indexed": false,
          "internalType": "uint256",
          "name": "timestamp",
          "type": "uint256"
        }
      ],
      "name": "KudosPropagated",
      "type": "event"
    },
    {
      "anonymous": false,
      "inputs": [
        {
          "indexed": true,
          "internalType": "uint256",
          "name": "tokenId",
          "type": "uint256"
        },
        {
          "indexed": true,
          "internalType": "address",
          "name": "from",
          "type": "address"
        },
        {
          "indexed": true,
          "internalType": "address",
          "name": "to",
          "type": "address"
        },
        {
          "indexed": false,
          "internalType": "uint256",
          "name": "amount",
          "type": "uint256"
        },
        {
          "indexed": false,
          "internalType": "uint256",
          "name": "timestamp",
          "type": "uint256"
        }
      ],
      "name": "KudosTransferred",
      "type": "event"
    },
    {
      "anonymous": false,
      "inputs": [
        {
          "indexed": true,
          "internalType": "address",
          "name": "previousOwner",
          "type": "address"
        },
        {
          "indexed": true,
          "internalType": "address",
          "name": "newOwner",
          "type": "address"
        }
      ],
      "name": "OwnershipTransferred",
      "type": "event"
    },
    {
      "anonymous": false,
      "inputs": [
        {
          "indexed": true,
          "internalType": "uint256",
          "name": "tokenId",
          "type": "uint256"
        },
        {
          "indexed": false,
          "internalType": "bool",
          "name": "canPropagate",
          "type": "bool"
        },
        {
          "indexed": false,
          "internalType": "bool",
          "name": "transferable",
          "type": "bool"
        }
      ],
      "name": "PropagationSettingsUpdated",
      "type": "event"
    },
    {
      "anonymous": false,
      "inputs": [
        {
          "indexed": true,
          "internalType": "address",
          "name": "operator",
          "type": "address"
        },
        {
          "indexed": true,
          "internalType": "address",
          "name": "from",
          "type": "address"
        },
        {
          "indexed": true,
          "internalType": "address",
          "name": "to",
          "type": "address"
        },
        {
          "indexed": false,
          "internalType": "uint256[]",
          "name": "ids",
          "type": "uint256[]"
        },
        {
          "indexed": false,
          "internalType": "uint256[]",
          "name": "values",
          "type": "uint256[]"
        }
      ],
      "name": "TransferBatch",
      "type": "event"
    },
    {
      "anonymous": false,
      "inputs": [
        {
          "indexed": true,
          "internalType": "address",
          "name": "operator",
          "type": "address"
        },
        {
          "indexed": true,
          "internalType": "address",
          "name": "from",
          "type": "address"
        },
        {
          "indexed": true,
          "internalType": "address",
          "name": "to",
          "type": "address"
        },
        {
          "indexed": false,
          "internalType": "uint256",
          "name": "id",
          "type": "uint256"
        },
        {
          "indexed": false,
          "internalType": "uint256",
          "name": "value",
          "type": "uint256"
        }
      ],
      "name": "TransferSingle",
      "type": "event"
    },
    {
      "anonymous": false,
      "inputs": [
        {
          "indexed": false,
          "internalType": "string",
          "name": "value",
          "type": "string"
        },
        {
          "indexed": true,
          "internalType": "uint256",
          "name": "id",
          "type": "uint256"
        }
      ],
      "name": "URI",
      "type": "event"
    },
    {
      "inputs": [
        {
          "internalType": "address",
          "name": "account",
          "type": "address"
        },
        {
          "internalType": "uint256",
          "name": "id",
          "type": "uint256"
        }
      ],
      "name": "balanceOf",
      "outputs": [
        {
          "internalType": "uint256",
          "name": "",
          "type": "uint256"
        }
      ],
      "stateMutability": "view",
      "type": "function"
    },
    {
      "inputs": [
        {
          "internalType": "address[]",
          "name": "accounts",
          "type": "address[]"
        },
        {
          "internalType": "uint256[]",
          "name": "ids",
          "type": "uint256[]"
        }
      ],
      "name": "balanceOfBatch",
      "outputs": [
        {
          "internalType": "uint256[]",
          "name": "",
          "type": "uint256[]"
        }
      ],
      "stateMutability": "view",
      "type": "function"
    },
    {
      "inputs": [
        {
          "internalType": "string",
          "name": "story",
          "type": "string"
        },
        {
          "internalType": "uint256",
          "name": "maxSupply",
          "type": "uint256"
        },
        {
          "internalType": "address[]",
          "name": "initialRecipients",
          "type": "address[]"
        },
        {
          "internalType": "string",
          "name": "visualSymbol",
          "type": "string"
        },
        {
          "internalType": "string",
          "name": "mediaUri",
          "type": "string"
        },
        {
          "internalType": "bool",
          "name": "_canPropagate",
          "type": "bool"
        },
        {
          "internalType": "bool",
          "name": "_transferable",
          "type": "bool"
        }
      ],
      "name": "createKudos",
      "outputs": [
        {
          "internalType": "uint256",
          "name": "",
          "type": "uint256"
        }
      ],
      "stateMutability": "nonpayable",
      "type": "function"
    },
    {
      "inputs": [
        {
          "internalType": "address",
          "name": "",
          "type": "address"
        },
        {
          "internalType": "uint256",
          "name": "",
          "type": "uint256"
        }
      ],
      "name": "creatorTokens",
      "outputs": [
        {
          "internalType": "uint256",
          "name": "",
          "type": "uint256"
        }
      ],
      "stateMutability": "view",
      "type": "function"
    },
    {
      "inputs": [
        {
          "internalType": "uint256",
          "name": "",
          "type": "uint256"
        },
        {
          "internalType": "address",
          "name": "",
          "type": "address"
        }
      ],
      "name": "firstReceiptTime",
      "outputs": [
        {
          "internalType": "uint256",
          "name": "",
          "type": "uint256"
        }
      ],
      "stateMutability": "view",
      "type": "function"
    },
    {
      "inputs": [
        {
          "internalType": "address",
          "name": "creator",
          "type": "address"
        }
      ],
      "name": "getCreatorTokens",
      "outputs": [
        {
          "internalType": "uint256[]",
          "name": "",
          "type": "uint256[]"
        }
      ],
      "stateMutability": "view",
      "type": "function"
    },
    {
      "inputs": [],
      "name": "getCurrentTokenId",
      "outputs": [
        {
          "internalType": "uint256",
          "name": "",
          "type": "uint256"
        }
      ],
      "stateMutability": "view",
      "type": "function"
    },
    {
      "inputs": [
        {
          "internalType": "uint256",
          "name": "tokenId",
          "type": "uint256"
        },
        {
          "internalType": "address",
          "name": "holder",
          "type": "address"
        }
      ],
      "name": "getHolderGeneration",
      "outputs": [
        {
          "internalType": "uint256",
          "name": "",
          "type": "uint256"
        }
      ],
      "stateMutability": "view",
      "type": "function"
    },
    {
      "inputs": [
        {
          "internalType": "address",
          "name": "holder",
          "type": "address"
        }
      ],
      "name": "getHolderTokens",
      "outputs": [
        {
          "internalType": "uint256[]",
          "name": "",
          "type": "uint256[]"
        }
      ],
      "stateMutability": "view",
      "type": "function"
    },
    {
      "inputs": [
        {
          "internalType": "uint256",
          "name": "tokenId",
          "type": "uint256"
        }
      ],
      "name": "getKudosMetadata",
      "outputs": [
        {
          "components": [
            {
              "internalType": "string",
              "name": "story",
              "type": "string"
            },
            {
              "internalType": "address",
              "name": "creator",
              "type": "address"
            },
            {
              "internalType": "uint256",
              "name": "maxSupply",
              "type": "uint256"
            },
            {
              "internalType": "uint256",
              "name": "currentSupply",
              "type": "uint256"
            },
            {
              "internalType": "uint256",
              "name": "createdAt",
              "type": "uint256"
            },
            {
              "internalType": "bool",
              "name": "transferable",
              "type": "bool"
            },
            {
              "internalType": "bool",
              "name": "canPropagate",
              "type": "bool"
            },
            {
              "internalType": "string",
              "name": "visualSymbol",
              "type": "string"
            },
            {
              "internalType": "string",
              "name": "mediaUri",
              "type": "string"
            }
          ],
          "internalType": "struct Kudos.KudosMetadata",
          "name": "",
          "type": "tuple"
        }
      ],
      "stateMutability": "view",
      "type": "function"
    },
    {
      "inputs": [
        {
          "internalType": "uint256",
          "name": "tokenId",
          "type": "uint256"
        }
      ],
      "name": "getKudosReach",
      "outputs": [
        {
          "internalType": "uint256",
          "name": "",
          "type": "uint256"
        }
      ],
      "stateMutability": "view",
      "type": "function"
    },
    {
      "inputs": [
        {
          "internalType": "uint256",
          "name": "tokenId",
          "type": "uint256"
        }
      ],
      "name": "getMaxPropagationDepth",
      "outputs": [
        {
          "internalType": "uint256",
          "name": "",
          "type": "uint256"
        }
      ],
      "stateMutability": "view",
      "type": "function"
    },
    {
      "inputs": [
        {
          "internalType": "uint256",
          "name": "tokenId",
          "type": "uint256"
        }
      ],
      "name": "getPropagationNetwork",
      "outputs": [
        {
          "components": [
            {
              "internalType": "address",
              "name": "from",
              "type": "address"
            },
            {
              "internalType": "address",
              "name": "to",
              "type": "address"
            },
            {
              "internalType": "uint256",
              "name": "timestamp",
              "type": "uint256"
            },
            {
              "internalType": "uint256",
              "name": "generation",
              "type": "uint256"
            }
          ],
          "internalType": "struct Kudos.PropagationRecord[]",
          "name": "",
          "type": "tuple[]"
        }
      ],
      "stateMutability": "view",
      "type": "function"
    },
    {
      "inputs": [
        {
          "internalType": "uint256",
          "name": "",
          "type": "uint256"
        },
        {
          "internalType": "address",
          "name": "",
          "type": "address"
        }
      ],
      "name": "holderGeneration",
      "outputs": [
        {
          "internalType": "uint256",
          "name": "",
          "type": "uint256"
        }
      ],
      "stateMutability": "view",
      "type": "function"
    },
    {
      "inputs": [
        {
          "internalType": "address",
          "name": "",
          "type": "address"
        },
        {
          "internalType": "uint256",
          "name": "",
          "type": "uint256"
        }
      ],
      "name": "holderTokens",
      "outputs": [
        {
          "internalType": "uint256",
          "name": "",
          "type": "uint256"
        }
      ],
      "stateMutability": "view",
      "type": "function"
    },
    {
      "inputs": [
        {
          "internalType": "address",
          "name": "account",
          "type": "address"
        },
        {
          "internalType": "address",
          "name": "operator",
          "type": "address"
        }
      ],
      "name": "isApprovedForAll",
      "outputs": [
        {
          "internalType": "bool",
          "name": "",
          "type": "bool"
        }
      ],
      "stateMutability": "view",
      "type": "function"
    },
    {
      "inputs": [
        {
          "internalType": "uint256",
          "name": "",
          "type": "uint256"
        }
      ],
      "name": "kudosData",
      "outputs": [
        {
          "internalType": "string",
          "name": "story",
          "type": "string"
        },
        {
          "internalType": "address",
          "name": "creator",
          "type": "address"
        },
        {
          "internalType": "uint256",
          "name": "maxSupply",
          "type": "uint256"
        },
        {
          "internalType": "uint256",
          "name": "currentSupply",
          "type": "uint256"
        },
        {
          "internalType": "uint256",
          "name": "createdAt",
          "type": "uint256"
        },
        {
          "internalType": "bool",
          "name": "transferable",
          "type": "bool"
        },
        {
          "internalType": "bool",
          "name": "canPropagate",
          "type": "bool"
        },
        {
          "internalType": "string",
          "name": "visualSymbol",
          "type": "string"
        },
        {
          "internalType": "string",
          "name": "mediaUri",
          "type": "string"
        }
      ],
      "stateMutability": "view",
      "type": "function"
    },
    {
      "inputs": [],
      "name": "owner",
      "outputs": [
        {
          "internalType": "address",
          "name": "",
          "type": "address"
        }
      ],
      "stateMutability": "view",
      "type": "function"
    },
    {
      "inputs": [
        {
          "internalType": "uint256",
          "name": "tokenId",
          "type": "uint256"
        },
        {
          "internalType": "address[]",
          "name": "recipients",
          "type": "address[]"
        }
      ],
      "name": "propagateKudos",
      "outputs": [],
      "stateMutability": "nonpayable",
      "type": "function"
    },
    {
      "inputs": [
        {
          "internalType": "uint256",
          "name": "",
          "type": "uint256"
        },
        {
          "internalType": "uint256",
          "name": "",
          "type": "uint256"
        }
      ],
      "name": "propagationHistory",
      "outputs": [
        {
          "internalType": "address",
          "name": "from",
          "type": "address"
        },
        {
          "internalType": "address",
          "name": "to",
          "type": "address"
        },
        {
          "internalType": "uint256",
          "name": "timestamp",
          "type": "uint256"
        },
        {
          "internalType": "uint256",
          "name": "generation",
          "type": "uint256"
        }
      ],
      "stateMutability": "view",
      "type": "function"
    },
    {
      "inputs": [],
      "name": "renounceOwnership",
      "outputs": [],
      "stateMutability": "nonpayable",
      "type": "function"
    },
    {
      "inputs": [
        {
          "internalType": "address",
          "name": "from",
          "type": "address"
        },
        {
          "internalType": "address",
          "name": "to",
          "type": "address"
        },
        {
          "internalType": "uint256[]",
          "name": "ids",
          "type": "uint256[]"
        },
        {
          "internalType": "uint256[]",
          "name": "amounts",
          "type": "uint256[]"
        },
        {
          "internalType": "bytes",
          "name": "data",
          "type": "bytes"
        }
      ],
      "name": "safeBatchTransferFrom",
      "outputs": [],
      "stateMutability": "nonpayable",
      "type": "function"
    },
    {
      "inputs": [
        {
          "internalType": "address",
          "name": "from",
          "type": "address"
        },
        {
          "internalType": "address",
          "name": "to",
          "type": "address"
        },
        {
          "internalType": "uint256",
          "name": "id",
          "type": "uint256"
        },
        {
          "internalType": "uint256",
          "name": "amount",
          "type": "uint256"
        },
        {
          "internalType": "bytes",
          "name": "data",
          "type": "bytes"
        }
      ],
      "name": "safeTransferFrom",
      "outputs": [],
      "stateMutability": "nonpayable",
      "type": "function"
    },
    {
      "inputs": [
        {
          "internalType": "address",
          "name": "operator",
          "type": "address"
        },
        {
          "internalType": "bool",
          "name": "approved",
          "type": "bool"
        }
      ],
      "name": "setApprovalForAll",
      "outputs": [],
      "stateMutability": "nonpayable",
      "type": "function"
    },
    {
      "inputs": [
        {
          "internalType": "string",
          "name": "newuri",
          "type": "string"
        }
      ],
      "name": "setURI",
      "outputs": [],
      "stateMutability": "nonpayable",
      "type": "function"
    },
    {
      "inputs": [
        {
          "internalType": "bytes4",
          "name": "interfaceId",
          "type": "bytes4"
        }
      ],
      "name": "supportsInterface",
      "outputs": [
        {
          "internalType": "bool",
          "name": "",
          "type": "bool"
        }
      ],
      "stateMutability": "view",
      "type": "function"
    },
    {
      "inputs": [
        {
          "internalType": "address",
          "name": "from",
          "type": "address"
        },
        {
          "internalType": "address",
          "name": "to",
          "type": "address"
        },
        {
          "internalType": "uint256",
          "name": "tokenId",
          "type": "uint256"
        },
        {
          "internalType": "uint256",
          "name": "amount",
          "type": "uint256"
        }
      ],
      "name": "traditionalTransfer",
      "outputs": [],
      "stateMutability": "nonpayable",
      "type": "function"
    },
    {
      "inputs": [
        {
          "internalType": "address",
          "name": "newOwner",
          "type": "address"
        }
      ],
      "name": "transferOwnership",
      "outputs": [],
      "stateMutability": "nonpayable",
      "type": "function"
    },
    {
      "inputs": [
        {
          "internalType": "uint256",
          "name": "tokenId",
          "type": "uint256"
        },
        {
          "internalType": "bool",
          "name": "_canPropagate",
          "type": "bool"
        },
        {
          "internalType": "bool",
          "name": "_transferable",
          "type": "bool"
        }
      ],
      "name": "updatePropagationSettings",
      "outputs": [],
      "stateMutability": "nonpayable",
      "type": "function"
    },
    {
      "inputs": [
        {
          "internalType": "uint256",
          "name": "tokenId",
          "type": "uint256"
        }
      ],
      "name": "uri",
      "outputs": [
        {
          "internalType": "string",
          "name": "",
          "type": "string"
        }
      ],
      "stateMutability": "view",
      "type": "function"
    }
  ],
  "transactionHash": "0xaac080dd135999dc658697f4b86fd457bd8f60bd487719a57cfe46876a5352eb",
  "args": [],
  "numDeployments": 1,
  "solcInputHash": "a8eb29a9bb24ecd50311a9e8f7747ffd",
  "bytecode": "0x60806040523480156200001157600080fd5b5060408051602081019091526000815233906200002e8162000075565b506001600160a01b0381166200005e57604051631e4fbdf760e01b81526000600482015260240160405180910390fd5b620000698162000087565b5060016004556200024a565b60026200008382826200017e565b5050565b600380546001600160a01b038381166001600160a01b0319831681179093556040519116919082907f8be0079c531659141344cd1fd0a4f28419497f9722a3daafe3b4186f6b6457e090600090a35050565b634e487b7160e01b600052604160045260246000fd5b600181811c908216806200010457607f821691505b6020821081036200012557634e487b7160e01b600052602260045260246000fd5b50919050565b601f8211156200017957600081815260208120601f850160051c81016020861015620001545750805b601f850160051c820191505b81811015620001755782815560010162000160565b5050505b505050565b81516001600160401b038111156200019a576200019a620000d9565b620001b281620001ab8454620000ef565b846200012b565b602080601f831160018114620001ea5760008415620001d15750858301515b600019600386901b1c1916600185901b17855562000175565b600085815260208120601f198616915b828110156200021b57888601518255948401946001909101908401620001fa565b50858210156200023a5787850151600019600388901b60f8161c191681555b5050505050600190811b01905550565b612ab7806200025a6000396000f3fe608060405234801561001057600080fd5b50600436106101d95760003560e01c806369574b3c11610104578063bd1809cd116100a2578063e547e69311610071578063e547e693146104ba578063e985e9c5146104cd578063f242432a146104e0578063f2fde38b146104f357600080fd5b8063bd1809cd1461043b578063c9aef0a014610471578063d68337aa14610484578063db3fa4cc146104a757600080fd5b806374abfa54116100de57806374abfa54146103e75780638da5cb5b146103fa578063a22cb46514610415578063bd02e0bc1461042857600080fd5b806369574b3c146103ac578063715018a6146103bf57806372ae9b31146103c757600080fd5b80632eb2c2d61161017c578063496a2e171161014b578063496a2e171461032e5780634e1273f4146103595780635618923614610379578063676cfec91461038157600080fd5b80632eb2c2d6146102c0578063393b8bf1146102d35780633ea6b6fe146102fb578063445858d41461030e57600080fd5b806307278587116101b8578063072785871461023c5780630d870b671461024f5780630e89341c1461028d5780631b625814146102ad57600080fd5b8062fdd58e146101de57806301ffc9a71461020457806302fe530514610227575b600080fd5b6101f16101ec366004611f4f565b610506565b6040519081526020015b60405180910390f35b610217610212366004611f8f565b61052e565b60405190151581526020016101fb565b61023a61023536600461206a565b61057e565b005b61023a61024a36600461213d565b610592565b61026261025d366004612184565b6106b1565b604080516001600160a01b0395861681529490931660208501529183015260608201526080016101fb565b6102a061029b3660046121a6565b610703565b6040516101fb9190612205565b6101f16102bb366004611f4f565b61070e565b61023a6102ce366004612273565b61073f565b6102e66102e13660046121a6565b6107c6565b6040516101fb9998979695949392919061231d565b6101f16103093660046123ae565b6109bc565b61032161031c3660046121a6565b610c7d565b6040516101fb9190612486565b6101f161033c366004612546565b600860209081526000928352604080842090915290825290205481565b61036c610367366004612572565b610f03565b6040516101fb9190612607565b6005546101f1565b6101f161038f366004612546565b600960209081526000928352604080842090915290825290205481565b61023a6103ba36600461261a565b610fdd565b61023a611088565b6103da6103d53660046121a6565b61109c565b6040516101fb9190612656565b61036c6103f53660046126c6565b61113e565b6003546040516001600160a01b0390911681526020016101fb565b61023a6104233660046126e1565b6111aa565b61023a61043636600461270b565b6111b5565b6101f1610449366004612546565b60009182526008602090815260408084206001600160a01b0393909316845291905290205490565b6101f161047f3660046121a6565b61128a565b6101f16104923660046121a6565b60009081526006602052604090206003015490565b6101f16104b5366004611f4f565b611380565b61036c6104c83660046126c6565b61139c565b6102176104db36600461274d565b611406565b61023a6104ee366004612777565b611434565b61023a6105013660046126c6565b611481565b6000818152602081815260408083206001600160a01b03861684529091529020545b92915050565b60006001600160e01b03198216636cdb3d1360e11b148061055f57506001600160e01b031982166303a24d0760e21b145b8061052857506301ffc9a760e01b6001600160e01b0319831614610528565b6105866114bc565b61058f816114e9565b50565b61059a6114f5565b60008281526006602052604090206005810154610100900460ff166105d2576040516304efdddb60e11b815260040160405180910390fd5b6105dc3384610506565b6000036105fc5760405163e131a43f60e01b815260040160405180910390fd5b6000838152600860209081526040808320338452909152812054906106228260016127f2565b905060005b845181101561069f57600085828151811061064457610644612805565b60200260200101519050336001600160a01b0316816001600160a01b031603610680576040516307b2ddb160e21b815260040160405180910390fd5b61068c8733838661151f565b50806106978161281b565b915050610627565b505050506106ad6001600455565b5050565b600760205281600052604060002081815481106106cd57600080fd5b600091825260209091206004909102018054600182015460028301546003909301546001600160a01b0392831695509116925084565b606061052882611746565b600b602052816000526040600020818154811061072a57600080fd5b90600052602060002001600091509150505481565b60005b83518110156107b1576006600085838151811061076157610761612805565b60209081029190910181015182528101919091526040016000206005015460ff1661079f5760405163a24e573d60e01b815260040160405180910390fd5b806107a98161281b565b915050610742565b506107bf85858585856117d0565b5050505050565b6006602052600090815260409020805481906107e190612834565b80601f016020809104026020016040519081016040528092919081815260200182805461080d90612834565b801561085a5780601f1061082f5761010080835404028352916020019161085a565b820191906000526020600020905b81548152906001019060200180831161083d57829003601f168201915b5050506001840154600285015460038601546004870154600588015460068901805498996001600160a01b0390961698949750929550909360ff80831694610100909304169290916108ab90612834565b80601f01602080910402602001604051908101604052809291908181526020018280546108d790612834565b80156109245780601f106108f957610100808354040283529160200191610924565b820191906000526020600020905b81548152906001019060200180831161090757829003601f168201915b50505050509080600701805461093990612834565b80601f016020809104026020016040519081016040528092919081815260200182805461096590612834565b80156109b25780601f10610987576101008083540402835291602001916109b2565b820191906000526020600020905b81548152906001019060200180831161099557829003601f168201915b5050505050905089565b60006109c66114f5565b87516000036109e857604051631a3c8e5f60e11b815260040160405180910390fd5b86600003610a095760405163066f305360e21b815260040160405180910390fd5b8686511115610a2b5760405163d05cb60960e01b815260040160405180910390fd5b600580549081906000610a3d8361281b565b909155505060408051610120810182528a8152336020808301919091528183018b905260006060830181905242608084015286151560a084015287151560c084015260e083018a9052610100830189905284815260069091529190912081518190610aa890826128b9565b5060208201516001820180546001600160a01b039092166001600160a01b031990921691909117905560408201516002820155606082015160038201556080820151600482015560a082015160058201805460c085015115156101000261ff00199315159390931661ffff199091161791909117905560e08201516006820190610b3290826128b9565b506101008201516007820190610b4890826128b9565b50905050610b683382600160405180602001604052806000815250611837565b6000818152600660209081526040808320600160039091018190556008835281842033808652908452828520859055858552600984528285208186528452828520429055600a845282852080548084018255908652848620018690558452600b8352908320805491820181558352908220018290555b8751811015610c1f57610c0d82338a8481518110610bfe57610bfe612805565b6020026020010151600161151f565b80610c178161281b565b915050610bde565b50336001600160a01b0316817ff69caf1eee2bb287b26a177f6605dc2d30e0077e1fe7e7dd5aaa6ceb678d0b7d8b8b42604051610c5e93929190612979565b60405180910390a39050610c726001600455565b979650505050505050565b610cd96040518061012001604052806060815260200160006001600160a01b0316815260200160008152602001600081526020016000815260200160001515815260200160001515815260200160608152602001606081525090565b6000828152600660205260409081902081516101208101909252805482908290610d0290612834565b80601f0160208091040260200160405190810160405280929190818152602001828054610d2e90612834565b8015610d7b5780601f10610d5057610100808354040283529160200191610d7b565b820191906000526020600020905b815481529060010190602001808311610d5e57829003601f168201915b505050918352505060018201546001600160a01b03166020820152600282015460408201526003820154606082015260048201546080820152600582015460ff808216151560a084015261010090910416151560c082015260068201805460e090920191610de890612834565b80601f0160208091040260200160405190810160405280929190818152602001828054610e1490612834565b8015610e615780601f10610e3657610100808354040283529160200191610e61565b820191906000526020600020905b815481529060010190602001808311610e4457829003601f168201915b50505050508152602001600782018054610e7a90612834565b80601f0160208091040260200160405190810160405280929190818152602001828054610ea690612834565b8015610ef35780601f10610ec857610100808354040283529160200191610ef3565b820191906000526020600020905b815481529060010190602001808311610ed657829003601f168201915b5050505050815250509050919050565b60608151835114610f395781518351604051635b05999160e01b8152600481019290925260248201526044015b60405180910390fd5b6000835167ffffffffffffffff811115610f5557610f55611fb3565b604051908082528060200260200182016040528015610f7e578160200160208202803683370190505b50905060005b8451811015610fd557602080820286010151610fa890602080840287010151610506565b828281518110610fba57610fba612805565b6020908102919091010152610fce8161281b565b9050610f84565b509392505050565b6000838152600660205260409020600101546001600160a01b031633146110175760405163e131a43f60e01b815260040160405180910390fd5b600083815260066020908152604091829020600501805461ffff191661010086151590810260ff19169190911785151590811790925583519081529182015284917fbfaa79493ecd47ef3d319b438893be1f062a6c8d15abbb60d47571d8436dd45d910160405180910390a2505050565b6110906114bc565b61109a6000611894565b565b606060076000838152602001908152602001600020805480602002602001604051908101604052809291908181526020016000905b82821015611133576000848152602090819020604080516080810182526004860290920180546001600160a01b0390811684526001808301549091168486015260028201549284019290925260030154606083015290835290920191016110d1565b505050509050919050565b6001600160a01b0381166000908152600a602090815260409182902080548351818402810184019094528084526060939283018282801561119e57602002820191906000526020600020905b81548152602001906001019080831161118a575b50505050509050919050565b6106ad3383836118e6565b60008281526006602052604090206005015460ff166111e75760405163a24e573d60e01b815260040160405180910390fd5b806111f28584610506565b101561121157604051631e9acf1760e31b815260040160405180910390fd5b61122d8484848460405180602001604052806000815250611434565b826001600160a01b0316846001600160a01b0316837f62e4d43c36dbde3895b89e1d5bb3d119b96c18b4a70b9b9e3854c3f7652acec3844260405161127c929190918252602082015260400190565b60405180910390a450505050565b600081815260076020908152604080832080548251818502810185019093528083528493849084015b82821015611315576000848152602090819020604080516080810182526004860290920180546001600160a01b0390811684526001808301549091168486015260028201549284019290925260030154606083015290835290920191016112b3565b5050505090506000805b8251811015610fd5578183828151811061133b5761133b612805565b602002602001015160600151111561136e5782818151811061135f5761135f612805565b60200260200101516060015191505b806113788161281b565b91505061131f565b600a602052816000526040600020818154811061072a57600080fd5b6001600160a01b0381166000908152600b602090815260409182902080548351818402810184019094528084526060939283018282801561119e576020028201919060005260206000209081548152602001906001019080831161118a5750505050509050919050565b6001600160a01b03918216600090815260016020908152604080832093909416825291909152205460ff1690565b60008381526006602052604090206005015460ff161580156114565750333014155b156114745760405163a24e573d60e01b815260040160405180910390fd5b6107bf858585858561197c565b6114896114bc565b6001600160a01b0381166114b357604051631e4fbdf760e01b815260006004820152602401610f30565b61058f81611894565b6003546001600160a01b0316331461109a5760405163118cdaa760e01b8152336004820152602401610f30565b60026106ad82826128b9565b60026004540361151857604051633ee5aeb560e01b815260040160405180910390fd5b6002600455565b600084815260066020526040902060028101546003820154106115555760405163d05cb60960e01b815260040160405180910390fd5b6115718386600160405180602001604052806000815250611837565b6003810180549060006115838361281b565b9091555050600085815260076020908152604080832081516080810183526001600160a01b03808a16825288811682860181815242848701908152606085018b8152865460018181018955978b52898b209651600490910290960180549686166001600160a01b031997881617815592519683018054979095169690951695909517909255925160028201559051600390910155888452600883528184209084529091529020541580611657575060008581526008602090815260408083206001600160a01b038716845290915290205482105b156116825760008581526008602090815260408083206001600160a01b038716845290915290208290555b60008581526009602090815260408083206001600160a01b038716845290915281205490036116e85760008581526009602090815260408083206001600160a01b03871684528252808320429055600b8252822080546001810182559083529120018590555b826001600160a01b0316846001600160a01b0316867f6860feefee44cbc23f30a91f017fb7c4ffe5ad26b8f739e64d9bdfc0d30a11668542604051611737929190918252602082015260400190565b60405180910390a45050505050565b60606002805461175590612834565b80601f016020809104026020016040519081016040528092919081815260200182805461178190612834565b801561119e5780601f106117a35761010080835404028352916020019161119e565b820191906000526020600020905b8154815290600101906020018083116117b15750939695505050505050565b336001600160a01b03861681148015906117f157506117ef8682611406565b155b156118225760405163711bec9160e11b81526001600160a01b03808316600483015287166024820152604401610f30565b61182f86868686866119db565b505050505050565b6001600160a01b03841661186157604051632bfa23e760e11b815260006004820152602401610f30565b6040805160018082526020820186905281830190815260608201859052608082019092529061182f600087848487611a37565b600380546001600160a01b038381166001600160a01b0319831681179093556040519116919082907f8be0079c531659141344cd1fd0a4f28419497f9722a3daafe3b4186f6b6457e090600090a35050565b6001600160a01b03821661190f5760405162ced3e160e81b815260006004820152602401610f30565b6001600160a01b03838116600081815260016020908152604080832094871680845294825291829020805460ff191686151590811790915591519182527f17307eab39ab6107e8899845ad3d59bd9653f200f220920489ca2b5937696c31910160405180910390a3505050565b336001600160a01b038616811480159061199d575061199b8682611406565b155b156119ce5760405163711bec9160e11b81526001600160a01b03808316600483015287166024820152604401610f30565b61182f8686868686611a8a565b6001600160a01b038416611a0557604051632bfa23e760e11b815260006004820152602401610f30565b6001600160a01b038516611a2e57604051626a0d4560e21b815260006004820152602401610f30565b6107bf85858585855b611a4385858585611b18565b6001600160a01b038416156107bf5782513390600103611a7c5760208481015190840151611a75838989858589611d26565b505061182f565b61182f818787878787611e4a565b6001600160a01b038416611ab457604051632bfa23e760e11b815260006004820152602401610f30565b6001600160a01b038516611add57604051626a0d4560e21b815260006004820152602401610f30565b60408051600180825260208201869052818301908152606082018590526080820190925290611b0f8787848487611a37565b50505050505050565b8051825114611b475781518151604051635b05999160e01b815260048101929092526024820152604401610f30565b3360005b8351811015611c56576020818102858101820151908501909101516001600160a01b03881615611bfe576000828152602081815260408083206001600160a01b038c16845290915290205481811015611bd7576040516303dee4c560e01b81526001600160a01b038a166004820152602481018290526044810183905260648101849052608401610f30565b6000838152602081815260408083206001600160a01b038d16845290915290209082900390555b6001600160a01b03871615611c43576000828152602081815260408083206001600160a01b038b16845290915281208054839290611c3d9084906127f2565b90915550505b505080611c4f9061281b565b9050611b4b565b508251600103611cd75760208301516000906020840151909150856001600160a01b0316876001600160a01b0316846001600160a01b03167fc3d58168c5ae7397731d063d5bbf3d657854427343f4c083240f7aacaa2d0f628585604051611cc8929190918252602082015260400190565b60405180910390a450506107bf565b836001600160a01b0316856001600160a01b0316826001600160a01b03167f4a39dc06d4c0dbc64b70af90fd698a233a518aa5d07e595d983b8c0526c8f7fb868660405161173792919061299e565b6001600160a01b0384163b1561182f5760405163f23a6e6160e01b81526001600160a01b0385169063f23a6e6190611d6a90899089908890889088906004016129cc565b6020604051808303816000875af1925050508015611da5575060408051601f3d908101601f19168201909252611da291810190612a06565b60015b611e0e573d808015611dd3576040519150601f19603f3d011682016040523d82523d6000602084013e611dd8565b606091505b508051600003611e0657604051632bfa23e760e11b81526001600160a01b0386166004820152602401610f30565b805181602001fd5b6001600160e01b0319811663f23a6e6160e01b14611b0f57604051632bfa23e760e11b81526001600160a01b0386166004820152602401610f30565b6001600160a01b0384163b1561182f5760405163bc197c8160e01b81526001600160a01b0385169063bc197c8190611e8e9089908990889088908890600401612a23565b6020604051808303816000875af1925050508015611ec9575060408051601f3d908101601f19168201909252611ec691810190612a06565b60015b611ef7573d808015611dd3576040519150601f19603f3d011682016040523d82523d6000602084013e611dd8565b6001600160e01b0319811663bc197c8160e01b14611b0f57604051632bfa23e760e11b81526001600160a01b0386166004820152602401610f30565b80356001600160a01b0381168114611f4a57600080fd5b919050565b60008060408385031215611f6257600080fd5b611f6b83611f33565b946020939093013593505050565b6001600160e01b03198116811461058f57600080fd5b600060208284031215611fa157600080fd5b8135611fac81611f79565b9392505050565b634e487b7160e01b600052604160045260246000fd5b604051601f8201601f1916810167ffffffffffffffff81118282101715611ff257611ff2611fb3565b604052919050565b600082601f83011261200b57600080fd5b813567ffffffffffffffff81111561202557612025611fb3565b612038601f8201601f1916602001611fc9565b81815284602083860101111561204d57600080fd5b816020850160208301376000918101602001919091529392505050565b60006020828403121561207c57600080fd5b813567ffffffffffffffff81111561209357600080fd5b61209f84828501611ffa565b949350505050565b600067ffffffffffffffff8211156120c1576120c1611fb3565b5060051b60200190565b600082601f8301126120dc57600080fd5b813560206120f16120ec836120a7565b611fc9565b82815260059290921b8401810191818101908684111561211057600080fd5b8286015b848110156121325761212581611f33565b8352918301918301612114565b509695505050505050565b6000806040838503121561215057600080fd5b82359150602083013567ffffffffffffffff81111561216e57600080fd5b61217a858286016120cb565b9150509250929050565b6000806040838503121561219757600080fd5b50508035926020909101359150565b6000602082840312156121b857600080fd5b5035919050565b6000815180845260005b818110156121e5576020818501810151868301820152016121c9565b506000602082860101526020601f19601f83011685010191505092915050565b602081526000611fac60208301846121bf565b600082601f83011261222957600080fd5b813560206122396120ec836120a7565b82815260059290921b8401810191818101908684111561225857600080fd5b8286015b84811015612132578035835291830191830161225c565b600080600080600060a0868803121561228b57600080fd5b61229486611f33565b94506122a260208701611f33565b9350604086013567ffffffffffffffff808211156122bf57600080fd5b6122cb89838a01612218565b945060608801359150808211156122e157600080fd5b6122ed89838a01612218565b9350608088013591508082111561230357600080fd5b5061231088828901611ffa565b9150509295509295909350565b60006101208083526123318184018d6121bf565b6001600160a01b038c166020850152604084018b9052606084018a90526080840189905287151560a085015286151560c085015283810360e0850152905061237981866121bf565b905082810361010084015261238e81856121bf565b9c9b505050505050505050505050565b80358015158114611f4a57600080fd5b600080600080600080600060e0888a0312156123c957600080fd5b873567ffffffffffffffff808211156123e157600080fd5b6123ed8b838c01611ffa565b985060208a0135975060408a013591508082111561240a57600080fd5b6124168b838c016120cb565b965060608a013591508082111561242c57600080fd5b6124388b838c01611ffa565b955060808a013591508082111561244e57600080fd5b5061245b8a828b01611ffa565b93505061246a60a0890161239e565b915061247860c0890161239e565b905092959891949750929550565b60208152600082516101208060208501526124a56101408501836121bf565b915060208501516124c160408601826001600160a01b03169052565b506040850151606085015260608501516080850152608085015160a085015260a08501516124f360c086018215159052565b5060c085015180151560e08601525060e0850151601f1961010081878603018188015261252085846121bf565b90880151878203909201848801529350905061253c83826121bf565b9695505050505050565b6000806040838503121561255957600080fd5b8235915061256960208401611f33565b90509250929050565b6000806040838503121561258557600080fd5b823567ffffffffffffffff8082111561259d57600080fd5b6125a9868387016120cb565b935060208501359150808211156125bf57600080fd5b5061217a85828601612218565b600081518084526020808501945080840160005b838110156125fc578151875295820195908201906001016125e0565b509495945050505050565b602081526000611fac60208301846125cc565b60008060006060848603121561262f57600080fd5b8335925061263f6020850161239e565b915061264d6040850161239e565b90509250925092565b602080825282518282018190526000919060409081850190868401855b828110156126b957815180516001600160a01b03908116865287820151168786015285810151868601526060908101519085015260809093019290850190600101612673565b5091979650505050505050565b6000602082840312156126d857600080fd5b611fac82611f33565b600080604083850312156126f457600080fd5b6126fd83611f33565b91506125696020840161239e565b6000806000806080858703121561272157600080fd5b61272a85611f33565b935061273860208601611f33565b93969395505050506040820135916060013590565b6000806040838503121561276057600080fd5b61276983611f33565b915061256960208401611f33565b600080600080600060a0868803121561278f57600080fd5b61279886611f33565b94506127a660208701611f33565b93506040860135925060608601359150608086013567ffffffffffffffff8111156127d057600080fd5b61231088828901611ffa565b634e487b7160e01b600052601160045260246000fd5b80820180821115610528576105286127dc565b634e487b7160e01b600052603260045260246000fd5b60006001820161282d5761282d6127dc565b5060010190565b600181811c9082168061284857607f821691505b60208210810361286857634e487b7160e01b600052602260045260246000fd5b50919050565b601f8211156128b457600081815260208120601f850160051c810160208610156128955750805b601f850160051c820191505b8181101561182f578281556001016128a1565b505050565b815167ffffffffffffffff8111156128d3576128d3611fb3565b6128e7816128e18454612834565b8461286e565b602080601f83116001811461291c57600084156129045750858301515b600019600386901b1c1916600185901b17855561182f565b600085815260208120601f198616915b8281101561294b5788860151825594840194600190910190840161292c565b50858210156129695787850151600019600388901b60f8161c191681555b5050505050600190811b01905550565b60608152600061298c60608301866121bf565b60208301949094525060400152919050565b6040815260006129b160408301856125cc565b82810360208401526129c381856125cc565b95945050505050565b6001600160a01b03868116825285166020820152604081018490526060810183905260a060808201819052600090610c72908301846121bf565b600060208284031215612a1857600080fd5b8151611fac81611f79565b6001600160a01b0386811682528516602082015260a060408201819052600090612a4f908301866125cc565b8281036060840152612a6181866125cc565b90508281036080840152612a7581856121bf565b9897505050505050505056fea26469706673582212200bf764b09331429aac03dd6faa4ea2f9456ea0513bc5eef5a7bd2a8318a6fac864736f6c63430008140033",
  "devdoc": {
    "author": "Inspired by Indigenous Wampum Systems",
    "details": "ERC-1155 based semi-fungible token system with propagation mechanics Core Philosophy: - Gratitude should spread, not be hoarded - Original creators maintain their tokens while sharing with others - Each token represents a unique story of appreciation - Distribution creates networks of shared acknowledgment",
    "errors": {
      "ERC1155InsufficientBalance(address,uint256,uint256,uint256)": [
        {
          "details": "Indicates an error related to the current `balance` of a `sender`. Used in transfers.",
          "params": {
            "balance": "Current balance for the interacting account.",
            "needed": "Minimum amount required to perform a transfer.",
            "sender": "Address whose tokens are being transferred.",
            "tokenId": "Identifier number of a token."
          }
        }
      ],
      "ERC1155InvalidApprover(address)": [
        {
          "details": "Indicates a failure with the `approver` of a token to be approved. Used in approvals.",
          "params": {
            "approver": "Address initiating an approval operation."
          }
        }
      ],
      "ERC1155InvalidArrayLength(uint256,uint256)": [
        {
          "details": "Indicates an array length mismatch between ids and values in a safeBatchTransferFrom operation. Used in batch transfers.",
          "params": {
            "idsLength": "Length of the array of token identifiers",
            "valuesLength": "Length of the array of token amounts"
          }
        }
      ],
      "ERC1155InvalidOperator(address)": [
        {
          "details": "Indicates a failure with the `operator` to be approved. Used in approvals.",
          "params": {
            "operator": "Address that may be allowed to operate on tokens without being their owner."
          }
        }
      ],
      "ERC1155InvalidReceiver(address)": [
        {
          "details": "Indicates a failure with the token `receiver`. Used in transfers.",
          "params": {
            "receiver": "Address to which tokens are being transferred."
          }
        }
      ],
      "ERC1155InvalidSender(address)": [
        {
          "details": "Indicates a failure with the token `sender`. Used in transfers.",
          "params": {
            "sender": "Address whose tokens are being transferred."
          }
        }
      ],
      "ERC1155MissingApprovalForAll(address,address)": [
        {
          "details": "Indicates a failure with the `operator`s approval. Used in transfers.",
          "params": {
            "operator": "Address that may be allowed to operate on tokens without being their owner.",
            "owner": "Address of the current owner of a token."
          }
        }
      ],
      "OwnableInvalidOwner(address)": [
        {
          "details": "The owner is not a valid owner account. (eg. `address(0)`)"
        }
      ],
      "OwnableUnauthorizedAccount(address)": [
        {
          "details": "The caller account is not authorized to perform an operation."
        }
      ],
      "ReentrancyGuardReentrantCall()": [
        {
          "details": "Unauthorized reentrant call."
        }
      ]
    },
    "events": {
      "ApprovalForAll(address,address,bool)": {
        "details": "Emitted when `account` grants or revokes permission to `operator` to transfer their tokens, according to `approved`."
      },
      "TransferBatch(address,address,address,uint256[],uint256[])": {
        "details": "Equivalent to multiple {TransferSingle} events, where `operator`, `from` and `to` are the same for all transfers."
      },
      "TransferSingle(address,address,address,uint256,uint256)": {
        "details": "Emitted when `value` amount of tokens of type `id` are transferred from `from` to `to` by `operator`."
      },
      "URI(string,uint256)": {
        "details": "Emitted when the URI for token type `id` changes to `value`, if it is a non-programmatic URI. If an {URI} event was emitted for `id`, the standard https://eips.ethereum.org/EIPS/eip-1155#metadata-extensions[guarantees] that `value` will equal the value returned by {IERC1155MetadataURI-uri}."
      }
    },
    "kind": "dev",
    "methods": {
      "balanceOf(address,uint256)": {
        "details": "See {IERC1155-balanceOf}."
      },
      "balanceOfBatch(address[],uint256[])": {
        "details": "See {IERC1155-balanceOfBatch}. Requirements: - `accounts` and `ids` must have the same length."
      },
      "createKudos(string,uint256,address[],string,string,bool,bool)": {
        "params": {
          "_canPropagate": "Whether holders can distribute to others",
          "_transferable": "Whether traditional transfers are allowed",
          "initialRecipients": "First recipients of this gratitude",
          "maxSupply": "Maximum number of copies that can exist",
          "mediaUri": "URI pointing to artwork, image, or other media",
          "story": "The narrative behind this gratitude",
          "visualSymbol": "Cultural/visual identifier for the token"
        },
        "returns": {
          "_0": "tokenId The newly created token ID"
        }
      },
      "getCreatorTokens(address)": {
        "params": {
          "creator": "The address to query"
        },
        "returns": {
          "_0": "Array of token IDs"
        }
      },
      "getCurrentTokenId()": {
        "returns": {
          "_0": "The next token ID to be minted"
        }
      },
      "getHolderGeneration(uint256,address)": {
        "params": {
          "holder": "The address to check",
          "tokenId": "The token to query"
        },
        "returns": {
          "_0": "The generation/hop count (0 = creator)"
        }
      },
      "getHolderTokens(address)": {
        "params": {
          "holder": "The address to query"
        },
        "returns": {
          "_0": "Array of token IDs"
        }
      },
      "getKudosMetadata(uint256)": {
        "params": {
          "tokenId": "The token to query"
        },
        "returns": {
          "_0": "The metadata struct"
        }
      },
      "getKudosReach(uint256)": {
        "params": {
          "tokenId": "The token to query"
        },
        "returns": {
          "_0": "Number of unique holders"
        }
      },
      "getMaxPropagationDepth(uint256)": {
        "params": {
          "tokenId": "The token to query"
        },
        "returns": {
          "_0": "The maximum generation number"
        }
      },
      "getPropagationNetwork(uint256)": {
        "params": {
          "tokenId": "The token to query"
        },
        "returns": {
          "_0": "Array of all propagation events"
        }
      },
      "isApprovedForAll(address,address)": {
        "details": "See {IERC1155-isApprovedForAll}."
      },
      "owner()": {
        "details": "Returns the address of the current owner."
      },
      "propagateKudos(uint256,address[])": {
        "details": "This is the PRIMARY distribution method - gratitude spreads without loss",
        "params": {
          "recipients": "Array of addresses to receive the gratitude",
          "tokenId": "The token to propagate"
        }
      },
      "renounceOwnership()": {
        "details": "Leaves the contract without owner. It will not be possible to call `onlyOwner` functions. Can only be called by the current owner. NOTE: Renouncing ownership will leave the contract without an owner, thereby disabling any functionality that is only available to the owner."
      },
      "safeTransferFrom(address,address,uint256,uint256,bytes)": {
        "details": "This enforces the propagation model by default"
      },
      "setApprovalForAll(address,bool)": {
        "details": "See {IERC1155-setApprovalForAll}."
      },
      "setURI(string)": {
        "params": {
          "newuri": "The new base URI"
        }
      },
      "supportsInterface(bytes4)": {
        "details": "See {IERC165-supportsInterface}."
      },
      "traditionalTransfer(address,address,uint256,uint256)": {
        "details": "Only enabled if transferable flag is true for this token",
        "params": {
          "amount": "Amount to transfer",
          "from": "Address to transfer from",
          "to": "Address to transfer to",
          "tokenId": "Token to transfer"
        }
      },
      "transferOwnership(address)": {
        "details": "Transfers ownership of the contract to a new account (`newOwner`). Can only be called by the current owner."
      },
      "updatePropagationSettings(uint256,bool,bool)": {
        "params": {
          "_canPropagate": "New propagation setting",
          "_transferable": "New transferable setting",
          "tokenId": "The token to update"
        }
      },
      "uri(uint256)": {
        "details": "In production, this would return IPFS hash or API endpoint"
      }
    },
    "title": "Kudos - A Distributed Gratitude Protocol",
    "version": 1
  },
  "userdoc": {
    "kind": "user",
    "methods": {
      "createKudos(string,uint256,address[],string,string,bool,bool)": {
        "notice": "Create a new Kudos token to express gratitude"
      },
      "getCreatorTokens(address)": {
        "notice": "Get all tokens created by an address"
      },
      "getCurrentTokenId()": {
        "notice": "Get the current token ID counter"
      },
      "getHolderGeneration(uint256,address)": {
        "notice": "Get how many \"hops\" a holder is from the original creator"
      },
      "getHolderTokens(address)": {
        "notice": "Get all tokens held by an address"
      },
      "getKudosMetadata(uint256)": {
        "notice": "Get complete metadata for a token"
      },
      "getKudosReach(uint256)": {
        "notice": "Calculate the \"reach\" of a kudos (total unique holders)"
      },
      "getMaxPropagationDepth(uint256)": {
        "notice": "Get the maximum propagation depth (longest chain from creator)"
      },
      "getPropagationNetwork(uint256)": {
        "notice": "Get the complete propagation network for a token"
      },
      "propagateKudos(uint256,address[])": {
        "notice": "Propagate kudos to new recipient(s) - creator and all holders maintain their tokens"
      },
      "safeBatchTransferFrom(address,address,uint256[],uint256[],bytes)": {
        "notice": "Block batch transfers unless explicitly enabled"
      },
      "safeTransferFrom(address,address,uint256,uint256,bytes)": {
        "notice": "Block standard ERC-1155 transfers unless explicitly enabled"
      },
      "setURI(string)": {
        "notice": "Update the base URI for token metadata"
      },
      "traditionalTransfer(address,address,uint256,uint256)": {
        "notice": "Traditional transfer - holder LOSES their token (optional, disabled by default)"
      },
      "updatePropagationSettings(uint256,bool,bool)": {
        "notice": "Update propagation settings for a token (creator only)"
      },
      "uri(uint256)": {
        "notice": "Override URI function to return token-specific metadata"
      }
    },
    "notice": "This contract enables gratitude to propagate through social networks",
    "version": 1
  },
  "storageLayout": {
    "storage": [
      {
        "astId": 326,
        "contract": "contracts/Kudos.sol:Kudos",
        "label": "_balances",
        "offset": 0,
        "slot": "0",
        "type": "t_mapping(t_uint256,t_mapping(t_address,t_uint256))"
      },
      {
        "astId": 332,
        "contract": "contracts/Kudos.sol:Kudos",
        "label": "_operatorApprovals",
        "offset": 0,
        "slot": "1",
        "type": "t_mapping(t_address,t_mapping(t_address,t_bool))"
      },
      {
        "astId": 334,
        "contract": "contracts/Kudos.sol:Kudos",
        "label": "_uri",
        "offset": 0,
        "slot": "2",
        "type": "t_string_storage"
      },
      {
        "astId": 8,
        "contract": "contracts/Kudos.sol:Kudos",
        "label": "_owner",
        "offset": 0,
        "slot": "3",
        "type": "t_address"
      },
      {
        "astId": 1740,
        "contract": "contracts/Kudos.sol:Kudos",
        "label": "_status",
        "offset": 0,
        "slot": "4",
        "type": "t_uint256"
      },
      {
        "astId": 3012,
        "contract": "contracts/Kudos.sol:Kudos",
        "label": "_tokenIdCounter",
        "offset": 0,
        "slot": "5",
        "type": "t_uint256"
      },
      {
        "astId": 3045,
        "contract": "contracts/Kudos.sol:Kudos",
        "label": "kudosData",
        "offset": 0,
        "slot": "6",
        "type": "t_mapping(t_uint256,t_struct(KudosMetadata)3031_storage)"
      },
      {
        "astId": 3051,
        "contract": "contracts/Kudos.sol:Kudos",
        "label": "propagationHistory",
        "offset": 0,
        "slot": "7",
        "type": "t_mapping(t_uint256,t_array(t_struct(PropagationRecord)3040_storage)dyn_storage)"
      },
      {
        "astId": 3057,
        "contract": "contracts/Kudos.sol:Kudos",
        "label": "holderGeneration",
        "offset": 0,
        "slot": "8",
        "type": "t_mapping(t_uint256,t_mapping(t_address,t_uint256))"
      },
      {
        "astId": 3063,
        "contract": "contracts/Kudos.sol:Kudos",
        "label": "firstReceiptTime",
        "offset": 0,
        "slot": "9",
        "type": "t_mapping(t_uint256,t_mapping(t_address,t_uint256))"
      },
      {
        "astId": 3068,
        "contract": "contracts/Kudos.sol:Kudos",
        "label": "creatorTokens",
        "offset": 0,
        "slot": "10",
        "type": "t_mapping(t_address,t_array(t_uint256)dyn_storage)"
      },
      {
        "astId": 3073,
        "contract": "contracts/Kudos.sol:Kudos",
        "label": "holderTokens",
        "offset": 0,
        "slot": "11",
        "type": "t_mapping(t_address,t_array(t_uint256)dyn_storage)"
      }
    ],
    "types": {
      "t_address": {
        "encoding": "inplace",
        "label": "address",
        "numberOfBytes": "20"
      },
      "t_array(t_struct(PropagationRecord)3040_storage)dyn_storage": {
        "base": "t_struct(PropagationRecord)3040_storage",
        "encoding": "dynamic_array",
        "label": "struct Kudos.PropagationRecord[]",
        "numberOfBytes": "32"
      },
      "t_array(t_uint256)dyn_storage": {
        "base": "t_uint256",
        "encoding": "dynamic_array",
        "label": "uint256[]",
        "numberOfBytes": "32"
      },
      "t_bool": {
        "encoding": "inplace",
        "label": "bool",
        "numberOfBytes": "1"
      },
      "t_mapping(t_address,t_array(t_uint256)dyn_storage)": {
        "encoding": "mapping",
        "key": "t_address",
        "label": "mapping(address => uint256[])",
        "numberOfBytes": "32",
        "value": "t_array(t_uint256)dyn_storage"
      },
      "t_mapping(t_address,t_bool)": {
        "encoding": "mapping",
        "key": "t_address",
        "label": "mapping(address => bool)",
        "numberOfBytes": "32",
        "value": "t_bool"
      },
      "t_mapping(t_address,t_mapping(t_address,t_bool))": {
        "encoding": "mapping",
        "key": "t_address",
        "label": "mapping(address => mapping(address => bool))",
        "numberOfBytes": "32",
        "value": "t_mapping(t_address,t_bool)"
      },
      "t_mapping(t_address,t_uint256)": {
        "encoding": "mapping",
        "key": "t_address",
        "label": "mapping(address => uint256)",
        "numberOfBytes": "32",
        "value": "t_uint256"
      },
      "t_mapping(t_uint256,t_array(t_struct(PropagationRecord)3040_storage)dyn_storage)": {
        "encoding": "mapping",
        "key": "t_uint256",
        "label": "mapping(uint256 => struct Kudos.PropagationRecord[])",
        "numberOfBytes": "32",
        "value": "t_array(t_struct(PropagationRecord)3040_storage)dyn_storage"
      },
      "t_mapping(t_uint256,t_mapping(t_address,t_uint256))": {
        "encoding": "mapping",
        "key": "t_uint256",
        "label": "mapping(uint256 => mapping(address => uint256))",
        "numberOfBytes": "32",
        "value": "t_mapping(t_address,t_uint256)"
      },
      "t_mapping(t_uint256,t_struct(KudosMetadata)3031_storage)": {
        "encoding": "mapping",
        "key": "t_uint256",
        "label": "mapping(uint256 => struct Kudos.KudosMetadata)",
        "numberOfBytes": "32",
        "value": "t_struct(KudosMetadata)3031_storage"
      },
      "t_string_storage": {
        "encoding": "bytes",
        "label": "string",
        "numberOfBytes": "32"
      },
      "t_struct(KudosMetadata)3031_storage": {
        "encoding": "inplace",
        "label": "struct Kudos.KudosMetadata",
        "members": [
          {
            "astId": 3014,
            "contract": "contracts/Kudos.sol:Kudos",
            "label": "story",
            "offset": 0,
            "slot": "0",
            "type": "t_string_storage"
          },
          {
            "astId": 3016,
            "contract": "contracts/Kudos.sol:Kudos",
            "label": "creator",
            "offset": 0,
            "slot": "1",
            "type": "t_address"
          },
          {
            "astId": 3018,
            "contract": "contracts/Kudos.sol:Kudos",
            "label": "maxSupply",
            "offset": 0,
            "slot": "2",
            "type": "t_uint256"
          },
          {
            "astId": 3020,
            "contract": "contracts/Kudos.sol:Kudos",
            "label": "currentSupply",
            "offset": 0,
            "slot": "3",
            "type": "t_uint256"
          },
          {
            "astId": 3022,
            "contract": "contracts/Kudos.sol:Kudos",
            "label": "createdAt",
            "offset": 0,
            "slot": "4",
            "type": "t_uint256"
          },
          {
            "astId": 3024,
            "contract": "contracts/Kudos.sol:Kudos",
            "label": "transferable",
            "offset": 0,
            "slot": "5",
            "type": "t_bool"
          },
          {
            "astId": 3026,
            "contract": "contracts/Kudos.sol:Kudos",
            "label": "canPropagate",
            "offset": 1,
            "slot": "5",
            "type": "t_bool"
          },
          {
            "astId": 3028,
            "contract": "contracts/Kudos.sol:Kudos",
            "label": "visualSymbol",
            "offset": 0,
            "slot": "6",
            "type": "t_string_storage"
          },
          {
            "astId": 3030,
            "contract": "contracts/Kudos.sol:Kudos",
            "label": "mediaUri",
            "offset": 0,
            "slot": "7",
            "type": "t_string_storage"
          }
        ],
        "numberOfBytes": "256"
      },
      "t_struct(PropagationRecord)3040_storage": {
        "encoding": "inplace",
        "label": "struct Kudos.PropagationRecord",
        "members": [
          {
            "astId": 3033,
            "contract": "contracts/Kudos.sol:Kudos",
            "label": "from",
            "offset": 0,
            "slot": "0",
            "type": "t_address"
          },
          {
            "astId": 3035,
            "contract": "contracts/Kudos.sol:Kudos",
            "label": "to",
            "offset": 0,
            "slot": "1",
            "type": "t_address"
          },
          {
            "astId": 3037,
            "contract": "contracts/Kudos.sol:Kudos",
            "label": "timestamp",
            "offset": 0,
            "slot": "2",
            "type": "t_uint256"
          },
          {
            "astId": 3039,
            "contract": "contracts/Kudos.sol:Kudos",
            "label": "generation",
            "offset": 0,
            "slot": "3",
            "type": "t_uint256"
          }
        ],
        "numberOfBytes": "128"
      },
      "t_uint256": {
        "encoding": "inplace",
        "label": "uint256",
        "numberOfBytes": "32"
      }
    }
  }
}